Component: ARM Compiler 5.06 update 7 for Certification (build 960) Tool: armlink [4d3601]

==============================================================================

Section Cross References

    startup_stm32l051xx.o(RESET) refers to startup_stm32l051xx.o(STACK) for __initial_sp
    startup_stm32l051xx.o(RESET) refers to startup_stm32l051xx.o(.text) for Reset_Handler
    startup_stm32l051xx.o(RESET) refers to stm32l0xx_it.o(i.NMI_Handler) for NMI_Handler
    startup_stm32l051xx.o(RESET) refers to stm32l0xx_it.o(i.HardFault_Handler) for HardFault_Handler
    startup_stm32l051xx.o(RESET) refers to stm32l0xx_it.o(i.SVC_Handler) for SVC_Handler
    startup_stm32l051xx.o(RESET) refers to stm32l0xx_it.o(i.PendSV_Handler) for PendSV_Handler
    startup_stm32l051xx.o(RESET) refers to stm32l0xx_it.o(i.SysTick_Handler) for SysTick_Handler
    startup_stm32l051xx.o(RESET) refers to stm32l0xx_it.o(i.PVD_IRQHandler) for PVD_IRQHandler
    startup_stm32l051xx.o(.text) refers to system_stm32l0xx.o(i.SystemInit) for SystemInit
    startup_stm32l051xx.o(.text) refers to entry.o(.ARM.Collect$$$$00000000) for __main
    main.o(i.SystemClock_Config) refers to memseta.o(.text) for __aeabi_memclr4
    main.o(i.SystemClock_Config) refers to stm32l0xx_hal_rcc.o(i.HAL_RCC_OscConfig) for HAL_RCC_OscConfig
    main.o(i.SystemClock_Config) refers to stm32l0xx_hal_rcc.o(i.HAL_RCC_ClockConfig) for HAL_RCC_ClockConfig
    main.o(i.main) refers to stm32l0xx_hal.o(i.HAL_Init) for HAL_Init
    main.o(i.main) refers to main.o(i.SystemClock_Config) for SystemClock_Config
    main.o(i.main) refers to gpio.o(i.MX_GPIO_Init) for MX_GPIO_Init
    main.o(i.main) refers to spi.o(i.MX_SPI1_Init) for MX_SPI1_Init
    main.o(i.main) refers to key.o(i.key_port_init) for key_port_init
==============================================================================

Removing Unused input sections from the image.

    Removing main.o(.rev16_text), (4 bytes).
    Removing main.o(.revsh_text), (4 bytes).
    Removing gpio.o(.rev16_text), (4 bytes).
    Removing gpio.o(.revsh_text), (4 bytes).
    Removing spi.o(.rev16_text), (4 bytes).
    Removing spi.o(.revsh_text), (4 bytes).
    Removing spi.o(i.HAL_SPI_MspDeInit), (40 bytes).
    Removing stm32l0xx_it.o(.rev16_text), (4 bytes).
    Removing stm32l0xx_it.o(.revsh_text), (4 bytes).
    Removing stm32l0xx_hal_msp.o(.rev16_text), (4 bytes).
    Removing stm32l0xx_hal_msp.o(.revsh_text), (4 bytes).
    Removing eeprom.o(.rev16_text), (4 bytes).
    Removing eeprom.o(.revsh_text), (4 bytes).
    Removing eeprom.o(i.EEPROM_Clear_W_CHECK), (42 bytes).
    Removing key.o(.rev16_text), (4 bytes).
    Removing key.o(.revsh_text), (4 bytes).
    Removing rc522.o(.rev16_text), (4 bytes).
    Removing rc522.o(.revsh_text), (4 bytes).
==============================================================================

Image Symbol Table

    Local Symbols

    Symbol Name                              Value     Ov Type        Size  Object(Section)

    ../Core/Src/gpio.c                       0x00000000   Number         0  gpio.o ABSOLUTE
    ../Core/Src/main.c                       0x00000000   Number         0  main.o ABSOLUTE
    ../Core/Src/spi.c                        0x00000000   Number         0  spi.o ABSOLUTE
    ../Core/Src/stm32l0xx_hal_msp.c          0x00000000   Number         0  stm32l0xx_hal_msp.o ABSOLUTE
    ../Core/Src/stm32l0xx_it.c               0x00000000   Number         0  stm32l0xx_it.o ABSOLUTE
    ../Core/Src/system_stm32l0xx.c           0x00000000   Number         0  system_stm32l0xx.o ABSOLUTE
    ../Drivers/STM32L0xx_HAL_Driver/Src/stm32l0xx_hal.c 0x00000000   Number         0  stm32l0xx_hal.o ABSOLUTE
    ../Drivers/STM32L0xx_HAL_Driver/Src/stm32l0xx_hal_cortex.c 0x00000000   Number         0  stm32l0xx_hal_cortex.o ABSOLUTE
    ../Drivers/STM32L0xx_HAL_Driver/Src/stm32l0xx_hal_dma.c 0x00000000   Number         0  stm32l0xx_hal_dma.o ABSOLUTE
    ../Drivers/STM32L0xx_HAL_Driver/Src/stm32l0xx_hal_exti.c 0x00000000   Number         0  stm32l0xx_hal_exti.o ABSOLUTE
    ../Drivers/STM32L0xx_HAL_Driver/Src/stm32l0xx_hal_flash.c 0x00000000   Number         0  stm32l0xx_hal_flash.o ABSOLUTE
    ../Drivers/STM32L0xx_HAL_Driver/Src/stm32l0xx_hal_flash_ex.c 0x00000000   Number         0  stm32l0xx_hal_flash_ex.o ABSOLUTE
    ../Drivers/STM32L0xx_HAL_Driver/Src/stm32l0xx_hal_flash_ramfunc.c 0x00000000   Number         0  stm32l0xx_hal_flash_ramfunc.o ABSOLUTE
    ../Drivers/STM32L0xx_HAL_Driver/Src/stm32l0xx_hal_gpio.c 0x00000000   Number         0  stm32l0xx_hal_gpio.o ABSOLUTE
    ../Drivers/STM32L0xx_HAL_Driver/Src/stm32l0xx_hal_i2c.c 0x00000000   Number         0  stm32l0xx_hal_i2c.o ABSOLUTE
    ../Drivers/STM32L0xx_HAL_Driver/Src/stm32l0xx_hal_i2c_ex.c 0x00000000   Number         0  stm32l0xx_hal_i2c_ex.o ABSOLUTE
    ../Drivers/STM32L0xx_HAL_Driver/Src/stm32l0xx_hal_pwr.c 0x00000000   Number         0  stm32l0xx_hal_pwr.o ABSOLUTE
    ../Drivers/STM32L0xx_HAL_Driver/Src/stm32l0xx_hal_pwr_ex.c 0x00000000   Number         0  stm32l0xx_hal_pwr_ex.o ABSOLUTE
    ../Drivers/STM32L0xx_HAL_Driver/Src/stm32l0xx_hal_rcc.c 0x00000000   Number         0  stm32l0xx_hal_rcc.o ABSOLUTE
    ../Drivers/STM32L0xx_HAL_Driver/Src/stm32l0xx_hal_rcc_ex.c 0x00000000   Number         0  stm32l0xx_hal_rcc_ex.o ABSOLUTE
    ../Drivers/STM32L0xx_HAL_Driver/Src/stm32l0xx_hal_spi.c 0x00000000   Number         0  stm32l0xx_hal_spi.o ABSOLUTE
    ../Drivers/STM32L0xx_HAL_Driver/Src/stm32l0xx_hal_tim.c 0x00000000   Number         0  stm32l0xx_hal_tim.o ABSOLUTE
    ../Drivers/STM32L0xx_HAL_Driver/Src/stm32l0xx_hal_tim_ex.c 0x00000000   Number         0  stm32l0xx_hal_tim_ex.o ABSOLUTE
    ../clib/../cmprslib/zerorunl2.c          0x00000000   Number         0  __dczerorl2.o ABSOLUTE
    ../clib/microlib/division.c              0x00000000   Number         0  idiv.o ABSOLUTE
    ../clib/microlib/division.c              0x00000000   Number         0  uidiv.o ABSOLUTE
    ../clib/microlib/division.c              0x00000000   Number         0  uldiv.o ABSOLUTE
    ../clib/microlib/init/entry.s            0x00000000   Number         0  entry9a.o ABSOLUTE
    ../clib/microlib/init/entry.s            0x00000000   Number         0  entry10a.o ABSOLUTE
    ../clib/microlib/init/entry.s            0x00000000   Number         0  entry10b.o ABSOLUTE
    ../clib/microlib/init/entry.s            0x00000000   Number         0  entry2.o ABSOLUTE
    ../clib/microlib/init/entry.s            0x00000000   Number         0  entry8b.o ABSOLUTE
    ../clib/microlib/init/entry.s            0x00000000   Number         0  entry11a.o ABSOLUTE
    ../clib/microlib/init/entry.s            0x00000000   Number         0  entry9b.o ABSOLUTE
    ../clib/microlib/init/entry.s            0x00000000   Number         0  entry11b.o ABSOLUTE
    ../clib/microlib/init/entry.s            0x00000000   Number         0  entry.o ABSOLUTE
    ../clib/microlib/init/entry.s            0x00000000   Number         0  entry8a.o ABSOLUTE
    ../clib/microlib/init/entry.s            0x00000000   Number         0  entry7b.o ABSOLUTE
    ../clib/microlib/init/entry.s            0x00000000   Number         0  entry7a.o ABSOLUTE
    ../clib/microlib/init/entry.s            0x00000000   Number         0  entry5.o ABSOLUTE
    ../clib/microlib/init/entry.s            0x00000000   Number         0  entry12a.o ABSOLUTE
    ../clib/microlib/init/entry.s            0x00000000   Number         0  entry12b.o ABSOLUTE
    ../clib/microlib/longlong.c              0x00000000   Number         0  llushr.o ABSOLUTE
    ../clib/microlib/longlong.c              0x00000000   Number         0  llshl.o ABSOLUTE
    ../clib/microlib/longlong.c              0x00000000   Number         0  llsshr.o ABSOLUTE
    ../clib/microlib/malloc/malloc.c         0x00000000   Number         0  malloca.o ABSOLUTE
    ../clib/microlib/malloc/malloc.c         0x00000000   Number         0  mallocr.o ABSOLUTE
    ../clib/microlib/malloc/malloc.c         0x00000000   Number         0  malloc.o ABSOLUTE
    ../clib/microlib/malloc/malloc.c         0x00000000   Number         0  mallocra.o ABSOLUTE
    ../clib/microlib/malloc/mvars.c          0x00000000   Number         0  mvars.o ABSOLUTE
    ../clib/microlib/printf/printf.c         0x00000000   Number         0  printf8.o ABSOLUTE
    ../clib/microlib/printf/printf.c         0x00000000   Number         0  printf7.o ABSOLUTE
    ../clib/microlib/printf/printf.c         0x00000000   Number         0  printf6.o ABSOLUTE
    ../clib/microlib/printf/printf.c         0x00000000   Number         0  printf5.o ABSOLUTE
    ../clib/microlib/printf/printf.c         0x00000000   Number         0  printf4.o ABSOLUTE
    ../clib/microlib/printf/printf.c         0x00000000   Number         0  printf3.o ABSOLUTE
    ../clib/microlib/printf/printf.c         0x00000000   Number         0  printf2.o ABSOLUTE
    ../clib/microlib/printf/printf.c         0x00000000   Number         0  printf1.o ABSOLUTE
    ../clib/microlib/printf/printf.c         0x00000000   Number         0  printf0.o ABSOLUTE
    ../clib/microlib/printf/printf.c         0x00000000   Number         0  printfb.o ABSOLUTE
    ../clib/microlib/printf/printf.c         0x00000000   Number         0  printfa.o ABSOLUTE
    ../clib/microlib/printf/stubs.s          0x00000000   Number         0  stubs.o ABSOLUTE
    ../clib/microlib/stdio/streams.c         0x00000000   Number         0  stdout.o ABSOLUTE
    ../clib/microlib/string/memcmp.c         0x00000000   Number         0  memcmp.o ABSOLUTE
    ../clib/microlib/string/memcpy.c         0x00000000   Number         0  memcpyb.o ABSOLUTE
    ../clib/microlib/string/memcpy.c         0x00000000   Number         0  memcpya.o ABSOLUTE
    ../clib/microlib/string/memset.c         0x00000000   Number         0  memseta.o ABSOLUTE
    ../clib/microlib/stubs.s                 0x00000000   Number         0  iusefp.o ABSOLUTE
    ../fplib/microlib/d2f.c                  0x00000000   Number         0  d2f.o ABSOLUTE
    ../fplib/microlib/fpadd.c                0x00000000   Number         0  dadd.o ABSOLUTE
    ../fplib/microlib/fpdiv.c                0x00000000   Number         0  ddiv.o ABSOLUTE
    ../fplib/microlib/fpepilogue.c           0x00000000   Number         0  depilogue.o ABSOLUTE
    ../fplib/microlib/fpepilogue.c           0x00000000   Number         0  fepilogue.o ABSOLUTE
    ../fplib/microlib/fpfix.c                0x00000000   Number         0  dfixul.o ABSOLUTE
    ../fplib/microlib/fpfix.c                0x00000000   Number         0  dfixi.o ABSOLUTE
    ../fplib/microlib/fpfix.c                0x00000000   Number         0  ffixi.o ABSOLUTE
    ../fplib/microlib/fpflt.c                0x00000000   Number         0  dflti.o ABSOLUTE
    ../fplib/microlib/fpmul.c                0x00000000   Number         0  fmul.o ABSOLUTE
    ../fplib/microlib/fpmul.c                0x00000000   Number         0  dmul.o ABSOLUTE
    ..\BSP\EEPROM\EEPROM.c                   0x00000000   Number         0  eeprom.o ABSOLUTE
    ..\BSP\EPaper\Config\DEV_Config.c        0x00000000   Number         0  dev_config.o ABSOLUTE
    ..\BSP\EPaper\GUI\GUI_Paint.c            0x00000000   Number         0  gui_paint.o ABSOLUTE
    ..\BSP\EPaper\ImageData.c                0x00000000   Number         0  imagedata.o ABSOLUTE
    ..\BSP\EPaper\e-Paper\EPD_1in54_V2.c     0x00000000   Number         0  epd_1in54_v2.o ABSOLUTE
    ..\BSP\KEY\key.c                         0x00000000   Number         0  key.o ABSOLUTE
    ..\BSP\RC522\RC522.c                     0x00000000   Number         0  rc522.o ABSOLUTE
    ..\BSP\Soft_SPI\Soft_SPI.c               0x00000000   Number         0  soft_spi.o ABSOLUTE
    ..\Core\Src\gpio.c                       0x00000000   Number         0  gpio.o ABSOLUTE
    ..\Core\Src\main.c                       0x00000000   Number         0  main.o ABSOLUTE
    ..\Core\Src\spi.c                        0x00000000   Number         0  spi.o ABSOLUTE
    ..\Core\Src\stm32l0xx_hal_msp.c          0x00000000   Number         0  stm32l0xx_hal_msp.o ABSOLUTE
    ..\Core\Src\stm32l0xx_it.c               0x00000000   Number         0  stm32l0xx_it.o ABSOLUTE
    ..\Core\Src\system_stm32l0xx.c           0x00000000   Number         0  system_stm32l0xx.o ABSOLUTE
    ..\Drivers\STM32L0xx_HAL_Driver\Src\stm32l0xx_hal.c 0x00000000   Number         0  stm32l0xx_hal.o ABSOLUTE
    ..\Drivers\STM32L0xx_HAL_Driver\Src\stm32l0xx_hal_cortex.c 0x00000000   Number         0  stm32l0xx_hal_cortex.o ABSOLUTE
    ..\Drivers\STM32L0xx_HAL_Driver\Src\stm32l0xx_hal_dma.c 0x00000000   Number         0  stm32l0xx_hal_dma.o ABSOLUTE
    ..\Drivers\STM32L0xx_HAL_Driver\Src\stm32l0xx_hal_exti.c 0x00000000   Number         0  stm32l0xx_hal_exti.o ABSOLUTE
    ..\Drivers\STM32L0xx_HAL_Driver\Src\stm32l0xx_hal_flash.c 0x00000000   Number         0  stm32l0xx_hal_flash.o ABSOLUTE
    ..\Drivers\STM32L0xx_HAL_Driver\Src\stm32l0xx_hal_flash_ex.c 0x00000000   Number         0  stm32l0xx_hal_flash_ex.o ABSOLUTE
    ..\Drivers\STM32L0xx_HAL_Driver\Src\stm32l0xx_hal_flash_ramfunc.c 0x00000000   Number         0  stm32l0xx_hal_flash_ramfunc.o ABSOLUTE
    ..\Drivers\STM32L0xx_HAL_Driver\Src\stm32l0xx_hal_gpio.c 0x00000000   Number         0  stm32l0xx_hal_gpio.o ABSOLUTE
    ..\Drivers\STM32L0xx_HAL_Driver\Src\stm32l0xx_hal_i2c.c 0x00000000   Number         0  stm32l0xx_hal_i2c.o ABSOLUTE
    ..\Drivers\STM32L0xx_HAL_Driver\Src\stm32l0xx_hal_i2c_ex.c 0x00000000   Number         0  stm32l0xx_hal_i2c_ex.o ABSOLUTE
    ..\Drivers\STM32L0xx_HAL_Driver\Src\stm32l0xx_hal_pwr.c 0x00000000   Number         0  stm32l0xx_hal_pwr.o ABSOLUTE
    ..\Drivers\STM32L0xx_HAL_Driver\Src\stm32l0xx_hal_pwr_ex.c 0x00000000   Number         0  stm32l0xx_hal_pwr_ex.o ABSOLUTE
    ..\Drivers\STM32L0xx_HAL_Driver\Src\stm32l0xx_hal_rcc.c 0x00000000   Number         0  stm32l0xx_hal_rcc.o ABSOLUTE
    ..\Drivers\STM32L0xx_HAL_Driver\Src\stm32l0xx_hal_rcc_ex.c 0x00000000   Number         0  stm32l0xx_hal_rcc_ex.o ABSOLUTE
    ..\Drivers\STM32L0xx_HAL_Driver\Src\stm32l0xx_hal_spi.c 0x00000000   Number         0  stm32l0xx_hal_spi.o ABSOLUTE
    ..\Drivers\STM32L0xx_HAL_Driver\Src\stm32l0xx_hal_tim.c 0x00000000   Number         0  stm32l0xx_hal_tim.o ABSOLUTE
    ..\Drivers\STM32L0xx_HAL_Driver\Src\stm32l0xx_hal_tim_ex.c 0x00000000   Number         0  stm32l0xx_hal_tim_ex.o ABSOLUTE
    ..\\BSP\\EEPROM\\EEPROM.c                0x00000000   Number         0  eeprom.o ABSOLUTE
    ..\\BSP\\EPaper\\Config\\DEV_Config.c    0x00000000   Number         0  dev_config.o ABSOLUTE
    ..\\BSP\\EPaper\\GUI\\GUI_Paint.c        0x00000000   Number         0  gui_paint.o ABSOLUTE
    ..\\BSP\\EPaper\\e-Paper\\EPD_1in54_V2.c 0x00000000   Number         0  epd_1in54_v2.o ABSOLUTE
    ..\\BSP\\KEY\\key.c                      0x00000000   Number         0  key.o ABSOLUTE
    ..\\BSP\\RC522\\RC522.c                  0x00000000   Number         0  rc522.o ABSOLUTE
    ..\\BSP\\Soft_SPI\\Soft_SPI.c            0x00000000   Number         0  soft_spi.o ABSOLUTE
    cdrcmple.s                               0x00000000   Number         0  cdrcmple.o ABSOLUTE
    dc.s                                     0x00000000   Number         0  dc.o ABSOLUTE
    handlers.s                               0x00000000   Number         0  handlers.o ABSOLUTE
    init.s                                   0x00000000   Number         0  init.o ABSOLUTE
    startup_stm32l051xx.s                    0x00000000   Number         0  startup_stm32l051xx.o ABSOLUTE
    RESET                                    0x08000000   Section      192  startup_stm32l051xx.o(RESET)
    .ARM.Collect$$$$00000000                 0x080000c0   Section        0  entry.o(.ARM.Collect$$$$00000000)
    .ARM.Collect$$$$00000001                 0x080000c0   Section        4  entry2.o(.ARM.Collect$$$$00000001)
    .ARM.Collect$$$$00000004                 0x080000c4   Section        4  entry5.o(.ARM.Collect$$$$00000004)
    .ARM.Collect$$$$00000008                 0x080000c8   Section        0  entry7b.o(.ARM.Collect$$$$00000008)
    .ARM.Collect$$$$0000000A                 0x080000c8   Section        0  entry8b.o(.ARM.Collect$$$$0000000A)
    .ARM.Collect$$$$0000000B                 0x080000c8   Section        8  entry9a.o(.ARM.Collect$$$$0000000B)
    .ARM.Collect$$$$0000000E                 0x080000d0   Section        4  entry12b.o(.ARM.Collect$$$$0000000E)
    .ARM.Collect$$$$0000000F                 0x080000d4   Section        0  entry10a.o(.ARM.Collect$$$$0000000F)
    .ARM.Collect$$$$00000011                 0x080000d4   Section        0  entry11a.o(.ARM.Collect$$$$00000011)
    .ARM.Collect$$$$00002712                 0x080000d4   Section        4  entry2.o(.ARM.Collect$$$$00002712)
    __lit__00000000                          0x080000d4   Data           4  entry2.o(.ARM.Collect$$$$00002712)
    .text                                    0x080000d8   Section       28  startup_stm32l051xx.o(.text)
    .text                                    0x080000f4   Section        0  uidiv.o(.text)
    .text                                    0x08000120   Section        0  uldiv.o(.text)
    .text                                    0x08000180   Section        0  memcpya.o(.text)
    .text                                    0x080001a4   Section        0  memseta.o(.text)
    .text                                    0x080001c8   Section        0  memcmp.o(.text)
    .text                                    0x080001e2   Section        0  llshl.o(.text)
    .text                                    0x08000202   Section        0  llushr.o(.text)
    .text                                    0x08000224   Section       36  init.o(.text)
    .text                                    0x08000248   Section        0  __dczerorl2.o(.text)
    i.CalculateCRC                           0x0800029e   Section        0  rc522.o(i.CalculateCRC)
    i.ClearBitMask                           0x08000300   Section        0  rc522.o(i.ClearBitMask)
    i.DEV_Module_Exit                        0x08000318   Section        0  dev_config.o(i.DEV_Module_Exit)
    i.DEV_Module_Init                        0x08000344   Section        0  dev_config.o(i.DEV_Module_Init)
    i.DEV_SPI_WriteByte                      0x08000370   Section        0  dev_config.o(i.DEV_SPI_WriteByte)
    i.EEPROM_READ                            0x08000388   Section        0  eeprom.o(i.EEPROM_READ)
    i.EEPROM_Read_W_CHECK                    0x080003a8   Section        0  eeprom.o(i.EEPROM_Read_W_CHECK)
    i.EEPROM_WRITE                           0x08000418   Section        0  eeprom.o(i.EEPROM_WRITE)
    i.EEPROM_Write_W_CHECK                   0x0800044c   Section        0  eeprom.o(i.EEPROM_Write_W_CHECK)
    i.EPD_1IN54_V2_Display                   0x0800049a   Section        0  epd_1in54_v2.o(i.EPD_1IN54_V2_Display)
    i.EPD_1IN54_V2_Init                      0x080004d8   Section        0  epd_1in54_v2.o(i.EPD_1IN54_V2_Init)
    i.EPD_1IN54_V2_ReadBusy                  0x08000560   Section        0  epd_1in54_v2.o(i.EPD_1IN54_V2_ReadBusy)
    EPD_1IN54_V2_ReadBusy                    0x08000561   Thumb Code    38  epd_1in54_v2.o(i.EPD_1IN54_V2_ReadBusy)
    i.EPD_1IN54_V2_Reset                     0x080005c4   Section        0  epd_1in54_v2.o(i.EPD_1IN54_V2_Reset)
    EPD_1IN54_V2_Reset                       0x080005c5   Thumb Code    54  epd_1in54_v2.o(i.EPD_1IN54_V2_Reset)
    i.EPD_1IN54_V2_SendCommand               0x08000600   Section        0  epd_1in54_v2.o(i.EPD_1IN54_V2_SendCommand)
    EPD_1IN54_V2_SendCommand                 0x08000601   Thumb Code    46  epd_1in54_v2.o(i.EPD_1IN54_V2_SendCommand)
    i.EPD_1IN54_V2_SendData                  0x08000634   Section        0  epd_1in54_v2.o(i.EPD_1IN54_V2_SendData)
    EPD_1IN54_V2_SendData                    0x08000635   Thumb Code    46  epd_1in54_v2.o(i.EPD_1IN54_V2_SendData)
    i.EPD_1IN54_V2_SetCursor                 0x08000668   Section        0  epd_1in54_v2.o(i.EPD_1IN54_V2_SetCursor)
    EPD_1IN54_V2_SetCursor                   0x08000669   Thumb Code    38  epd_1in54_v2.o(i.EPD_1IN54_V2_SetCursor)
    i.EPD_1IN54_V2_SetLut                    0x0800068e   Section        0  epd_1in54_v2.o(i.EPD_1IN54_V2_SetLut)
    EPD_1IN54_V2_SetLut                      0x0800068f   Thumb Code    94  epd_1in54_v2.o(i.EPD_1IN54_V2_SetLut)
    i.EPD_1IN54_V2_SetWindows                0x080006ec   Section        0  epd_1in54_v2.o(i.EPD_1IN54_V2_SetWindows)
    EPD_1IN54_V2_SetWindows                  0x080006ed   Thumb Code    64  epd_1in54_v2.o(i.EPD_1IN54_V2_SetWindows)
    i.EPD_1IN54_V2_Sleep                     0x0800072c   Section        0  epd_1in54_v2.o(i.EPD_1IN54_V2_Sleep)
    i.EPD_1IN54_V2_TurnOnDisplay             0x08000742   Section        0  epd_1in54_v2.o(i.EPD_1IN54_V2_TurnOnDisplay)
    i.Error_Handler                          0x0800075c   Section        0  main.o(i.Error_Handler)
    i.FLASH_SetErrorCode                     0x08000760   Section        0  stm32l0xx_hal_flash.o(i.FLASH_SetErrorCode)
    FLASH_SetErrorCode                       0x08000761   Thumb Code   134  stm32l0xx_hal_flash.o(i.FLASH_SetErrorCode)
    i.FLASH_WaitForLastOperation             0x080007f0   Section        0  stm32l0xx_hal_flash.o(i.FLASH_WaitForLastOperation)
    i.HAL_Delay                              0x08000860   Section        0  stm32l0xx_hal.o(i.HAL_Delay)
    i.HAL_FLASHEx_DATAEEPROM_Lock            0x08000884   Section        0  stm32l0xx_hal_flash_ex.o(i.HAL_FLASHEx_DATAEEPROM_Lock)
    i.HAL_FLASHEx_DATAEEPROM_Program         0x08000898   Section        0  stm32l0xx_hal_flash_ex.o(i.HAL_FLASHEx_DATAEEPROM_Program)
    i.HAL_FLASHEx_DATAEEPROM_Unlock          0x080008f0   Section        0  stm32l0xx_hal_flash_ex.o(i.HAL_FLASHEx_DATAEEPROM_Unlock)
    i.HAL_GPIO_Init                          0x08000924   Section        0  stm32l0xx_hal_gpio.o(i.HAL_GPIO_Init)
    i.HAL_GPIO_ReadPin                       0x08000ad4   Section        0  stm32l0xx_hal_gpio.o(i.HAL_GPIO_ReadPin)
    i.HAL_GPIO_WritePin                      0x08000ade   Section        0  stm32l0xx_hal_gpio.o(i.HAL_GPIO_WritePin)
    i.HAL_GetTick                            0x08000aec   Section        0  stm32l0xx_hal.o(i.HAL_GetTick)
    i.HAL_IncTick                            0x08000af8   Section        0  stm32l0xx_hal.o(i.HAL_IncTick)
    i.HAL_Init                               0x08000b08   Section        0  stm32l0xx_hal.o(i.HAL_Init)
    i.HAL_InitTick                           0x08000b30   Section        0  stm32l0xx_hal.o(i.HAL_InitTick)
    i.HAL_MspInit                            0x08000b74   Section        0  stm32l0xx_hal_msp.o(i.HAL_MspInit)
    i.HAL_NVIC_EnableIRQ                     0x08000bbc   Section        0  stm32l0xx_hal_cortex.o(i.HAL_NVIC_EnableIRQ)
    i.HAL_NVIC_SetPriority                   0x08000bd4   Section        0  stm32l0xx_hal_cortex.o(i.HAL_NVIC_SetPriority)
    i.HAL_PWR_ConfigPVD                      0x08000bdc   Section        0  stm32l0xx_hal_pwr.o(i.HAL_PWR_ConfigPVD)
    i.HAL_PWR_EnablePVD                      0x08000c44   Section        0  stm32l0xx_hal_pwr.o(i.HAL_PWR_EnablePVD)
    i.HAL_PWR_PVDCallback                    0x08000c54   Section        0  stm32l0xx_hal_pwr.o(i.HAL_PWR_PVDCallback)
    i.HAL_PWR_PVD_IRQHandler                 0x08000c58   Section        0  stm32l0xx_hal_pwr.o(i.HAL_PWR_PVD_IRQHandler)
    i.HAL_RCC_ClockConfig                    0x08000c74   Section        0  stm32l0xx_hal_rcc.o(i.HAL_RCC_ClockConfig)
    i.HAL_RCC_GetSysClockFreq                0x08000e10   Section        0  stm32l0xx_hal_rcc.o(i.HAL_RCC_GetSysClockFreq)
    i.HAL_RCC_OscConfig                      0x08000e88   Section        0  stm32l0xx_hal_rcc.o(i.HAL_RCC_OscConfig)
    i.HAL_SPI_Init                           0x080012ae   Section        0  stm32l0xx_hal_spi.o(i.HAL_SPI_Init)
    i.HAL_SPI_MspInit                        0x08001364   Section        0  spi.o(i.HAL_SPI_MspInit)
    i.HAL_SPI_Transmit                       0x080013bc   Section        0  stm32l0xx_hal_spi.o(i.HAL_SPI_Transmit)
    i.HAL_SYSTICK_Config                     0x0800151c   Section        0  stm32l0xx_hal_cortex.o(i.HAL_SYSTICK_Config)
    i.HardFault_Handler                      0x0800154c   Section        0  stm32l0xx_it.o(i.HardFault_Handler)
    i.KeyScan                                0x08001550   Section        0  key.o(i.KeyScan)
    i.MX_GPIO_Init                           0x080015d8   Section        0  gpio.o(i.MX_GPIO_Init)
    i.MX_SPI1_Init                           0x08001664   Section        0  spi.o(i.MX_SPI1_Init)
    i.NMI_Handler                            0x080016a4   Section        0  stm32l0xx_it.o(i.NMI_Handler)
    i.PVD_IRQHandler                         0x080016a6   Section        0  stm32l0xx_it.o(i.PVD_IRQHandler)
    i.Paint_Clear                            0x080016b0   Section        0  gui_paint.o(i.Paint_Clear)
    i.Paint_DrawBitMap                       0x0800174c   Section        0  gui_paint.o(i.Paint_DrawBitMap)
    i.Paint_DrawBitMap_Paste                 0x0800177c   Section        0  gui_paint.o(i.Paint_DrawBitMap_Paste)
    i.Paint_NewImage                         0x080017e4   Section        0  gui_paint.o(i.Paint_NewImage)
    i.Paint_SelectImage                      0x08001824   Section        0  gui_paint.o(i.Paint_SelectImage)
    i.Paint_SetPixel                         0x08001830   Section        0  gui_paint.o(i.Paint_SetPixel)
    i.PcdAnticoll                            0x0800194c   Section        0  rc522.o(i.PcdAnticoll)
    i.PcdAuthState                           0x080019b4   Section        0  rc522.o(i.PcdAuthState)
    i.PcdComMF522                            0x08001a04   Section        0  rc522.o(i.PcdComMF522)
    i.PcdRead                                0x08001b1c   Section        0  rc522.o(i.PcdRead)
    i.PcdRequest                             0x08001b66   Section        0  rc522.o(i.PcdRequest)
    i.PcdSelect                              0x08001bb8   Section        0  rc522.o(i.PcdSelect)
    i.PcdWrite                               0x08001c1a   Section        0  rc522.o(i.PcdWrite)
    i.PendSV_Handler                         0x08001c9c   Section        0  stm32l0xx_it.o(i.PendSV_Handler)
    i.RC522_Init                             0x08001c9e   Section        0  rc522.o(i.RC522_Init)
    i.RC522_Port_Init                        0x08001d34   Section        0  rc522.o(i.RC522_Port_Init)
    i.RC522_PowerOff                         0x08001d68   Section        0  rc522.o(i.RC522_PowerOff)
    i.RC522_ReadReg                          0x08001d7c   Section        0  rc522.o(i.RC522_ReadReg)
    i.RC522_WriteReg                         0x08001d90   Section        0  rc522.o(i.RC522_WriteReg)
    i.RST_Pin_Init                           0x08001da4   Section        0  rc522.o(i.RST_Pin_Init)
    i.SPI_CS_SET                             0x08001dec   Section        0  soft_spi.o(i.SPI_CS_SET)
    i.SPI_EndRxTxTransaction                 0x08001e00   Section        0  stm32l0xx_hal_spi.o(i.SPI_EndRxTxTransaction)
    SPI_EndRxTxTransaction                   0x08001e01   Thumb Code    88  stm32l0xx_hal_spi.o(i.SPI_EndRxTxTransaction)
    i.SPI_GpioInit                           0x08001e60   Section        0  soft_spi.o(i.SPI_GpioInit)
    i.SPI_MISO_Read                          0x08001edc   Section        0  soft_spi.o(i.SPI_MISO_Read)
    i.SPI_MOSI_SET                           0x08001eee   Section        0  soft_spi.o(i.SPI_MOSI_SET)
    i.SPI_ReadByte                           0x08001f02   Section        0  soft_spi.o(i.SPI_ReadByte)
    i.SPI_SCLK_SET                           0x08001f8e   Section        0  soft_spi.o(i.SPI_SCLK_SET)
    i.SPI_WaitFlagStateUntilTimeout          0x08001fa4   Section        0  stm32l0xx_hal_spi.o(i.SPI_WaitFlagStateUntilTimeout)
    SPI_WaitFlagStateUntilTimeout            0x08001fa5   Thumb Code   180  stm32l0xx_hal_spi.o(i.SPI_WaitFlagStateUntilTimeout)
    i.SPI_WriteByte                          0x0800205c   Section        0  soft_spi.o(i.SPI_WriteByte)
    i.SVC_Handler                            0x080020e0   Section        0  stm32l0xx_it.o(i.SVC_Handler)
    i.SetBitMask                             0x080020e2   Section        0  rc522.o(i.SetBitMask)
    i.SysTick_Handler                        0x080020f8   Section        0  stm32l0xx_it.o(i.SysTick_Handler)
    i.SystemClock_Config                     0x08002100   Section        0  main.o(i.SystemClock_Config)
    i.SystemInit                             0x08002168   Section        0  system_stm32l0xx.o(i.SystemInit)
    i.__0printf$3                            0x0800216c   Section        0  printf3.o(i.__0printf$3)
    i.__ARM_common_ll_muluu                  0x0800218c   Section        0  stm32l0xx_hal_rcc.o(i.__ARM_common_ll_muluu)
    i.__NVIC_SetPriority                     0x080021bc   Section        0  stm32l0xx_hal_cortex.o(i.__NVIC_SetPriority)
    __NVIC_SetPriority                       0x080021bd   Thumb Code    60  stm32l0xx_hal_cortex.o(i.__NVIC_SetPriority)
    i.__scatterload_copy                     0x08002200   Section       14  handlers.o(i.__scatterload_copy)
    i.__scatterload_null                     0x0800220e   Section        2  handlers.o(i.__scatterload_null)
    i.__scatterload_zeroinit                 0x08002210   Section       14  handlers.o(i.__scatterload_zeroinit)
    i._printf_core                           0x08002220   Section        0  printf3.o(i._printf_core)
    _printf_core                             0x08002221   Thumb Code   456  printf3.o(i._printf_core)
    i.fputc                                  0x080023ec   Section        0  main.o(i.fputc)
    i.free                                   0x080023f0   Section        0  malloc.o(i.free)
    i.key_port_init                          0x08002444   Section        0  key.o(i.key_port_init)
    i.main                                   0x0800247c   Section        0  main.o(i.main)
    i.malloc                                 0x08002764   Section        0  malloc.o(i.malloc)
    .constdata                               0x080027d0   Section     5000  imagedata.o(.constdata)
    .constdata                               0x08003b58   Section       96  imagedata.o(.constdata)
    .constdata                               0x08003bb8   Section       25  system_stm32l0xx.o(.constdata)
    .data                                    0x20000000   Section       15  main.o(.data)
    .data                                    0x2000000f   Section        1  key.o(.data)
    key_up                                   0x2000000f   Data           1  key.o(.data)
    .data                                    0x20000010   Section       24  rc522.o(.data)
    .data                                    0x20000028   Section      318  epd_1in54_v2.o(.data)
    .data                                    0x20000168   Section       12  stm32l0xx_hal.o(.data)
    .data                                    0x20000174   Section        4  system_stm32l0xx.o(.data)
    .data                                    0x20000178   Section        4  stdout.o(.data)
    .data                                    0x2000017c   Section        4  mvars.o(.data)
    .data                                    0x20000180   Section        4  mvars.o(.data)
    .bss                                     0x20000184   Section       88  spi.o(.bss)
    .bss                                     0x200001dc   Section       24  gui_paint.o(.bss)
    .bss                                     0x200001f4   Section       24  stm32l0xx_hal_flash.o(.bss)
    HEAP                                     0x20000210   Section     5120  startup_stm32l051xx.o(HEAP)
    STACK                                    0x20001610   Section     1024  startup_stm32l051xx.o(STACK)

    Global Symbols

    Symbol Name                              Value     Ov Type        Size  Object(Section)

    BuildAttributes$$THM_ISAv3M$S$PE$A:L22$X:L11$S22$IEEE1$IW$USESV6$~STKCKD$USESV7$~SHL$OTIME$ROPI$EBA8$MICROLIB$REQ8$PRES8$EABIv2 0x00000000   Number         0  anon$$obj.o ABSOLUTE
    __ARM_use_no_argv                        0x00000000   Number         0  main.o ABSOLUTE
    _printf_a                                0x00000000   Number         0  stubs.o ABSOLUTE
    _printf_c                                0x00000000   Number         0  stubs.o ABSOLUTE
    _printf_charcount                        0x00000000   Number         0  stubs.o ABSOLUTE
    _printf_d                                0x00000000   Number         0  stubs.o ABSOLUTE
    _printf_e                                0x00000000   Number         0  stubs.o ABSOLUTE
    _printf_f                                0x00000000   Number         0  stubs.o ABSOLUTE
    _printf_flags                            0x00000000   Number         0  stubs.o ABSOLUTE
    _printf_fp_dec                           0x00000000   Number         0  stubs.o ABSOLUTE
    _printf_fp_hex                           0x00000000   Number         0  stubs.o ABSOLUTE
    _printf_g                                0x00000000   Number         0  stubs.o ABSOLUTE
    _printf_i                                0x00000000   Number         0  stubs.o ABSOLUTE
    _printf_int_dec                          0x00000000   Number         0  stubs.o ABSOLUTE
    _printf_l                                0x00000000   Number         0  stubs.o ABSOLUTE
    _printf_lc                               0x00000000   Number         0  stubs.o ABSOLUTE
    _printf_ll                               0x00000000   Number         0  stubs.o ABSOLUTE
    _printf_lld                              0x00000000   Number         0  stubs.o ABSOLUTE
    _printf_lli                              0x00000000   Number         0  stubs.o ABSOLUTE
    _printf_llo                              0x00000000   Number         0  stubs.o ABSOLUTE
    _printf_llu                              0x00000000   Number         0  stubs.o ABSOLUTE
    _printf_llx                              0x00000000   Number         0  stubs.o ABSOLUTE
    _printf_longlong_dec                     0x00000000   Number         0  stubs.o ABSOLUTE
    _printf_longlong_hex                     0x00000000   Number         0  stubs.o ABSOLUTE
    _printf_longlong_oct                     0x00000000   Number         0  stubs.o ABSOLUTE
    _printf_ls                               0x00000000   Number         0  stubs.o ABSOLUTE
    _printf_mbtowc                           0x00000000   Number         0  stubs.o ABSOLUTE
    _printf_n                                0x00000000   Number         0  stubs.o ABSOLUTE
    _printf_o                                0x00000000   Number         0  stubs.o ABSOLUTE
    _printf_p                                0x00000000   Number         0  stubs.o ABSOLUTE
    _printf_percent                          0x00000000   Number         0  stubs.o ABSOLUTE
    _printf_pre_padding                      0x00000000   Number         0  stubs.o ABSOLUTE
    _printf_return_value                     0x00000000   Number         0  stubs.o ABSOLUTE
    _printf_s                                0x00000000   Number         0  stubs.o ABSOLUTE
    _printf_sizespec                         0x00000000   Number         0  stubs.o ABSOLUTE
    _printf_str                              0x00000000   Number         0  stubs.o ABSOLUTE
    _printf_truncate_signed                  0x00000000   Number         0  stubs.o ABSOLUTE
    _printf_truncate_unsigned                0x00000000   Number         0  stubs.o ABSOLUTE
    _printf_u                                0x00000000   Number         0  stubs.o ABSOLUTE
    _printf_wc                               0x00000000   Number         0  stubs.o ABSOLUTE
    _printf_wctomb                           0x00000000   Number         0  stubs.o ABSOLUTE
    _printf_widthprec                        0x00000000   Number         0  stubs.o ABSOLUTE
    _printf_x                                0x00000000   Number         0  stubs.o ABSOLUTE
    __arm_fini_                               - Undefined Weak Reference
    __cpp_initialize__aeabi_                  - Undefined Weak Reference
    __cxa_finalize                            - Undefined Weak Reference
    _clock_init                               - Undefined Weak Reference
    _microlib_exit                            - Undefined Weak Reference
    __Vectors_Size                           0x000000c0   Number         0  startup_stm32l051xx.o ABSOLUTE
    __Vectors                                0x08000000   Data           4  startup_stm32l051xx.o(RESET)
    __Vectors_End                            0x080000c0   Data           0  startup_stm32l051xx.o(RESET)
    __main                                   0x080000c1   Thumb Code     0  entry.o(.ARM.Collect$$$$00000000)
    _main_stk                                0x080000c1   Thumb Code     0  entry2.o(.ARM.Collect$$$$00000001)
    _main_scatterload                        0x080000c5   Thumb Code     0  entry5.o(.ARM.Collect$$$$00000004)
    __main_after_scatterload                 0x080000c9   Thumb Code     0  entry5.o(.ARM.Collect$$$$00000004)
    _main_clock                              0x080000c9   Thumb Code     0  entry7b.o(.ARM.Collect$$$$00000008)
    _main_cpp_init                           0x080000c9   Thumb Code     0  entry8b.o(.ARM.Collect$$$$0000000A)
    _main_init                               0x080000c9   Thumb Code     0  entry9a.o(.ARM.Collect$$$$0000000B)
    __rt_lib_shutdown_fini                   0x080000d1   Thumb Code     0  entry12b.o(.ARM.Collect$$$$0000000E)
    __rt_final_cpp                           0x080000d5   Thumb Code     0  entry10a.o(.ARM.Collect$$$$0000000F)
    __rt_final_exit                          0x080000d5   Thumb Code     0  entry11a.o(.ARM.Collect$$$$00000011)
    Reset_Handler                            0x080000d9   Thumb Code     8  startup_stm32l051xx.o(.text)
    ADC1_COMP_IRQHandler                     0x080000eb   Thumb Code     0  startup_stm32l051xx.o(.text)
    DMA1_Channel1_IRQHandler                 0x080000eb   Thumb Code     0  startup_stm32l051xx.o(.text)
    DMA1_Channel2_3_IRQHandler               0x080000eb   Thumb Code     0  startup_stm32l051xx.o(.text)
    DMA1_Channel4_5_6_7_IRQHandler           0x080000eb   Thumb Code     0  startup_stm32l051xx.o(.text)
    EXTI0_1_IRQHandler                       0x080000eb   Thumb Code     0  startup_stm32l051xx.o(.text)
    EXTI2_3_IRQHandler                       0x080000eb   Thumb Code     0  startup_stm32l051xx.o(.text)
    EXTI4_15_IRQHandler                      0x080000eb   Thumb Code     0  startup_stm32l051xx.o(.text)
    FLASH_IRQHandler                         0x080000eb   Thumb Code     0  startup_stm32l051xx.o(.text)
    I2C1_IRQHandler                          0x080000eb   Thumb Code     0  startup_stm32l051xx.o(.text)
    I2C2_IRQHandler                          0x080000eb   Thumb Code     0  startup_stm32l051xx.o(.text)
    LPTIM1_IRQHandler                        0x080000eb   Thumb Code     0  startup_stm32l051xx.o(.text)
    LPUART1_IRQHandler                       0x080000eb   Thumb Code     0  startup_stm32l051xx.o(.text)
    RCC_IRQHandler                           0x080000eb   Thumb Code     0  startup_stm32l051xx.o(.text)
    RTC_IRQHandler                           0x080000eb   Thumb Code     0  startup_stm32l051xx.o(.text)
    SPI1_IRQHandler                          0x080000eb   Thumb Code     0  startup_stm32l051xx.o(.text)
    SPI2_IRQHandler                          0x080000eb   Thumb Code     0  startup_stm32l051xx.o(.text)
    TIM21_IRQHandler                         0x080000eb   Thumb Code     0  startup_stm32l051xx.o(.text)
    TIM22_IRQHandler                         0x080000eb   Thumb Code     0  startup_stm32l051xx.o(.text)
    TIM2_IRQHandler                          0x080000eb   Thumb Code     0  startup_stm32l051xx.o(.text)
    TIM6_IRQHandler                          0x080000eb   Thumb Code     0  startup_stm32l051xx.o(.text)
    USART1_IRQHandler                        0x080000eb   Thumb Code     0  startup_stm32l051xx.o(.text)
    USART2_IRQHandler                        0x080000eb   Thumb Code     0  startup_stm32l051xx.o(.text)
    WWDG_IRQHandler                          0x080000eb   Thumb Code     0  startup_stm32l051xx.o(.text)
    __aeabi_uidiv                            0x080000f5   Thumb Code     0  uidiv.o(.text)
    __aeabi_uidivmod                         0x080000f5   Thumb Code    44  uidiv.o(.text)
    __aeabi_uldivmod                         0x08000121   Thumb Code    96  uldiv.o(.text)
    __aeabi_memcpy                           0x08000181   Thumb Code    36  memcpya.o(.text)
    __aeabi_memcpy4                          0x08000181   Thumb Code     0  memcpya.o(.text)
    __aeabi_memcpy8                          0x08000181   Thumb Code     0  memcpya.o(.text)
    __aeabi_memset                           0x080001a5   Thumb Code    14  memseta.o(.text)
    __aeabi_memset4                          0x080001a5   Thumb Code     0  memseta.o(.text)
    __aeabi_memset8                          0x080001a5   Thumb Code     0  memseta.o(.text)
    __aeabi_memclr                           0x080001b3   Thumb Code     4  memseta.o(.text)
    __aeabi_memclr4                          0x080001b3   Thumb Code     0  memseta.o(.text)
    __aeabi_memclr8                          0x080001b3   Thumb Code     0  memseta.o(.text)
    _memset$wrapper                          0x080001b7   Thumb Code    18  memseta.o(.text)
    memcmp                                   0x080001c9   Thumb Code    26  memcmp.o(.text)
    __aeabi_llsl                             0x080001e3   Thumb Code    32  llshl.o(.text)
    _ll_shift_l                              0x080001e3   Thumb Code     0  llshl.o(.text)
    __aeabi_llsr                             0x08000203   Thumb Code    34  llushr.o(.text)
    _ll_ushift_r                             0x08000203   Thumb Code     0  llushr.o(.text)
    __scatterload                            0x08000225   Thumb Code    28  init.o(.text)
    __scatterload_rt2                        0x08000225   Thumb Code     0  init.o(.text)
    __decompress                             0x08000249   Thumb Code     0  __dczerorl2.o(.text)
    __decompress1                            0x08000249   Thumb Code    86  __dczerorl2.o(.text)
    CalculateCRC                             0x0800029f   Thumb Code    98  rc522.o(i.CalculateCRC)
    ClearBitMask                             0x08000301   Thumb Code    22  rc522.o(i.ClearBitMask)
    DEV_Module_Exit                          0x08000319   Thumb Code    38  dev_config.o(i.DEV_Module_Exit)
    DEV_Module_Init                          0x08000345   Thumb Code    40  dev_config.o(i.DEV_Module_Init)
    DEV_SPI_WriteByte                        0x08000371   Thumb Code    18  dev_config.o(i.DEV_SPI_WriteByte)
    EEPROM_READ                              0x08000389   Thumb Code    26  eeprom.o(i.EEPROM_READ)
    EEPROM_Read_W_CHECK                      0x080003a9   Thumb Code   112  eeprom.o(i.EEPROM_Read_W_CHECK)
    EEPROM_WRITE                             0x08000419   Thumb Code    46  eeprom.o(i.EEPROM_WRITE)
    EEPROM_Write_W_CHECK                     0x0800044d   Thumb Code    78  eeprom.o(i.EEPROM_Write_W_CHECK)
    EPD_1IN54_V2_Display                     0x0800049b   Thumb Code    60  epd_1in54_v2.o(i.EPD_1IN54_V2_Display)
    EPD_1IN54_V2_Init                        0x080004d9   Thumb Code   130  epd_1in54_v2.o(i.EPD_1IN54_V2_Init)
    EPD_1IN54_V2_Sleep                       0x0800072d   Thumb Code    22  epd_1in54_v2.o(i.EPD_1IN54_V2_Sleep)
    EPD_1IN54_V2_TurnOnDisplay               0x08000743   Thumb Code    26  epd_1in54_v2.o(i.EPD_1IN54_V2_TurnOnDisplay)
    Error_Handler                            0x0800075d   Thumb Code     4  main.o(i.Error_Handler)
    FLASH_WaitForLastOperation               0x080007f1   Thumb Code   106  stm32l0xx_hal_flash.o(i.FLASH_WaitForLastOperation)
    HAL_Delay                                0x08000861   Thumb Code    32  stm32l0xx_hal.o(i.HAL_Delay)
    HAL_FLASHEx_DATAEEPROM_Lock              0x08000885   Thumb Code    14  stm32l0xx_hal_flash_ex.o(i.HAL_FLASHEx_DATAEEPROM_Lock)
    HAL_FLASHEx_DATAEEPROM_Program           0x08000899   Thumb Code    78  stm32l0xx_hal_flash_ex.o(i.HAL_FLASHEx_DATAEEPROM_Program)
    HAL_FLASHEx_DATAEEPROM_Unlock            0x080008f1   Thumb Code    40  stm32l0xx_hal_flash_ex.o(i.HAL_FLASHEx_DATAEEPROM_Unlock)
    HAL_GPIO_Init                            0x08000925   Thumb Code   402  stm32l0xx_hal_gpio.o(i.HAL_GPIO_Init)
    HAL_GPIO_ReadPin                         0x08000ad5   Thumb Code    10  stm32l0xx_hal_gpio.o(i.HAL_GPIO_ReadPin)
    HAL_GPIO_WritePin                        0x08000adf   Thumb Code    12  stm32l0xx_hal_gpio.o(i.HAL_GPIO_WritePin)
    HAL_GetTick                              0x08000aed   Thumb Code     6  stm32l0xx_hal.o(i.HAL_GetTick)
    HAL_IncTick                              0x08000af9   Thumb Code    12  stm32l0xx_hal.o(i.HAL_IncTick)
    HAL_Init                                 0x08000b09   Thumb Code    36  stm32l0xx_hal.o(i.HAL_Init)
    HAL_InitTick                             0x08000b31   Thumb Code    58  stm32l0xx_hal.o(i.HAL_InitTick)
    HAL_MspInit                              0x08000b75   Thumb Code    62  stm32l0xx_hal_msp.o(i.HAL_MspInit)
    HAL_NVIC_EnableIRQ                       0x08000bbd   Thumb Code    18  stm32l0xx_hal_cortex.o(i.HAL_NVIC_EnableIRQ)
    HAL_NVIC_SetPriority                     0x08000bd5   Thumb Code     8  stm32l0xx_hal_cortex.o(i.HAL_NVIC_SetPriority)
    HAL_PWR_ConfigPVD                        0x08000bdd   Thumb Code    94  stm32l0xx_hal_pwr.o(i.HAL_PWR_ConfigPVD)
    HAL_PWR_EnablePVD                        0x08000c45   Thumb Code    12  stm32l0xx_hal_pwr.o(i.HAL_PWR_EnablePVD)
    HAL_PWR_PVDCallback                      0x08000c55   Thumb Code     2  stm32l0xx_hal_pwr.o(i.HAL_PWR_PVDCallback)
    HAL_PWR_PVD_IRQHandler                   0x08000c59   Thumb Code    22  stm32l0xx_hal_pwr.o(i.HAL_PWR_PVD_IRQHandler)
    HAL_RCC_ClockConfig                      0x08000c75   Thumb Code   386  stm32l0xx_hal_rcc.o(i.HAL_RCC_ClockConfig)
    HAL_RCC_GetSysClockFreq                  0x08000e11   Thumb Code   108  stm32l0xx_hal_rcc.o(i.HAL_RCC_GetSysClockFreq)
    HAL_RCC_OscConfig                        0x08000e89   Thumb Code  1062  stm32l0xx_hal_rcc.o(i.HAL_RCC_OscConfig)
    HAL_SPI_Init                             0x080012af   Thumb Code   182  stm32l0xx_hal_spi.o(i.HAL_SPI_Init)
    HAL_SPI_MspInit                          0x08001365   Thumb Code    78  spi.o(i.HAL_SPI_MspInit)
    HAL_SPI_Transmit                         0x080013bd   Thumb Code   352  stm32l0xx_hal_spi.o(i.HAL_SPI_Transmit)
    HAL_SYSTICK_Config                       0x0800151d   Thumb Code    38  stm32l0xx_hal_cortex.o(i.HAL_SYSTICK_Config)
    HardFault_Handler                        0x0800154d   Thumb Code     2  stm32l0xx_it.o(i.HardFault_Handler)
    KeyScan                                  0x08001551   Thumb Code   132  key.o(i.KeyScan)
    MX_GPIO_Init                             0x080015d9   Thumb Code   128  gpio.o(i.MX_GPIO_Init)
    MX_SPI1_Init                             0x08001665   Thumb Code    56  spi.o(i.MX_SPI1_Init)
    NMI_Handler                              0x080016a5   Thumb Code     2  stm32l0xx_it.o(i.NMI_Handler)
    PVD_IRQHandler                           0x080016a7   Thumb Code     8  stm32l0xx_it.o(i.PVD_IRQHandler)
    Paint_Clear                              0x080016b1   Thumb Code   152  gui_paint.o(i.Paint_Clear)
    Paint_DrawBitMap                         0x0800174d   Thumb Code    44  gui_paint.o(i.Paint_DrawBitMap)
    Paint_DrawBitMap_Paste                   0x0800177d   Thumb Code   104  gui_paint.o(i.Paint_DrawBitMap_Paste)
    Paint_NewImage                           0x080017e5   Thumb Code    58  gui_paint.o(i.Paint_NewImage)
    Paint_SelectImage                        0x08001825   Thumb Code     6  gui_paint.o(i.Paint_SelectImage)
    Paint_SetPixel                           0x08001831   Thumb Code   238  gui_paint.o(i.Paint_SetPixel)
    PcdAnticoll                              0x0800194d   Thumb Code   104  rc522.o(i.PcdAnticoll)
    PcdAuthState                             0x080019b5   Thumb Code    80  rc522.o(i.PcdAuthState)
    PcdComMF522                              0x08001a05   Thumb Code   280  rc522.o(i.PcdComMF522)
    PcdRead                                  0x08001b1d   Thumb Code    74  rc522.o(i.PcdRead)
    PcdRequest                               0x08001b67   Thumb Code    82  rc522.o(i.PcdRequest)
    PcdSelect                                0x08001bb9   Thumb Code    98  rc522.o(i.PcdSelect)
    PcdWrite                                 0x08001c1b   Thumb Code   130  rc522.o(i.PcdWrite)
    PendSV_Handler                           0x08001c9d   Thumb Code     2  stm32l0xx_it.o(i.PendSV_Handler)
    RC522_Init                               0x08001c9f   Thumb Code   148  rc522.o(i.RC522_Init)
    RC522_Port_Init                          0x08001d35   Thumb Code    44  rc522.o(i.RC522_Port_Init)
    RC522_PowerOff                           0x08001d69   Thumb Code    18  rc522.o(i.RC522_PowerOff)
    RC522_ReadReg                            0x08001d7d   Thumb Code    16  rc522.o(i.RC522_ReadReg)
    RC522_WriteReg                           0x08001d91   Thumb Code    16  rc522.o(i.RC522_WriteReg)
    RST_Pin_Init                             0x08001da5   Thumb Code    66  rc522.o(i.RST_Pin_Init)
    SPI_CS_SET                               0x08001ded   Thumb Code    20  soft_spi.o(i.SPI_CS_SET)
    SPI_GpioInit                             0x08001e61   Thumb Code   124  soft_spi.o(i.SPI_GpioInit)
    SPI_MISO_Read                            0x08001edd   Thumb Code    18  soft_spi.o(i.SPI_MISO_Read)
    SPI_MOSI_SET                             0x08001eef   Thumb Code    20  soft_spi.o(i.SPI_MOSI_SET)
    SPI_ReadByte                             0x08001f03   Thumb Code   140  soft_spi.o(i.SPI_ReadByte)
    SPI_SCLK_SET                             0x08001f8f   Thumb Code    20  soft_spi.o(i.SPI_SCLK_SET)
    SPI_WriteByte                            0x0800205d   Thumb Code   132  soft_spi.o(i.SPI_WriteByte)
    SVC_Handler                              0x080020e1   Thumb Code     2  stm32l0xx_it.o(i.SVC_Handler)
    SetBitMask                               0x080020e3   Thumb Code    22  rc522.o(i.SetBitMask)
    SysTick_Handler                          0x080020f9   Thumb Code     8  stm32l0xx_it.o(i.SysTick_Handler)
    SystemClock_Config                       0x08002101   Thumb Code   100  main.o(i.SystemClock_Config)
    SystemInit                               0x08002169   Thumb Code     2  system_stm32l0xx.o(i.SystemInit)
    __0printf$3                              0x0800216d   Thumb Code    24  printf3.o(i.__0printf$3)
    __1printf$3                              0x0800216d   Thumb Code     0  printf3.o(i.__0printf$3)
    __2printf                                0x0800216d   Thumb Code     0  printf3.o(i.__0printf$3)
    __ARM_common_ll_muluu                    0x0800218d   Thumb Code    48  stm32l0xx_hal_rcc.o(i.__ARM_common_ll_muluu)
    __scatterload_copy                       0x08002201   Thumb Code    14  handlers.o(i.__scatterload_copy)
    __scatterload_null                       0x0800220f   Thumb Code     2  handlers.o(i.__scatterload_null)
    __scatterload_zeroinit                   0x08002211   Thumb Code    14  handlers.o(i.__scatterload_zeroinit)
    fputc                                    0x080023ed   Thumb Code     2  main.o(i.fputc)
    free                                     0x080023f1   Thumb Code    80  malloc.o(i.free)
    key_port_init                            0x08002445   Thumb Code    52  key.o(i.key_port_init)
    main                                     0x0800247d   Thumb Code   682  main.o(i.main)
    malloc                                   0x08002765   Thumb Code    92  malloc.o(i.malloc)
    gImage_MainPic                           0x080027d0   Data        5000  imagedata.o(.constdata)
    gImage_PointerPic                        0x08003b58   Data          96  imagedata.o(.constdata)
    AHBPrescTable                            0x08003bb8   Data          16  system_stm32l0xx.o(.constdata)
    PLLMulTable                              0x08003bc8   Data           9  system_stm32l0xx.o(.constdata)
    Region$$Table$$Base                      0x08003bd4   Number         0  anon$$obj.o(Region$$Table)
    Region$$Table$$Limit                     0x08003bf4   Number         0  anon$$obj.o(Region$$Table)
    RC522_ERRO                               0x20000000   Data           1  main.o(.data)
    EEPROM_ERRO                              0x20000001   Data           1  main.o(.data)
    snr                                      0x20000002   Data           1  main.o(.data)
    TagType                                  0x20000003   Data           2  main.o(.data)
    SelectedSnr                              0x20000005   Data           4  main.o(.data)
    DefaultKey                               0x20000009   Data           6  main.o(.data)
    RC522_dev                                0x20000010   Data          24  rc522.o(.data)
    WF_Full_1IN54                            0x20000028   Data         159  epd_1in54_v2.o(.data)
    WF_PARTIAL_1IN54_0                       0x200000c7   Data         159  epd_1in54_v2.o(.data)
    uwTickFreq                               0x20000168   Data           1  stm32l0xx_hal.o(.data)
    uwTickPrio                               0x2000016c   Data           4  stm32l0xx_hal.o(.data)
    uwTick                                   0x20000170   Data           4  stm32l0xx_hal.o(.data)
    SystemCoreClock                          0x20000174   Data           4  system_stm32l0xx.o(.data)
    __stdout                                 0x20000178   Data           4  stdout.o(.data)
    __microlib_freelist                      0x2000017c   Data           4  mvars.o(.data)
    __microlib_freelist_initialised          0x20000180   Data           4  mvars.o(.data)
    hspi1                                    0x20000184   Data          88  spi.o(.bss)
    Paint                                    0x200001dc   Data          24  gui_paint.o(.bss)
    pFlash                                   0x200001f4   Data          24  stm32l0xx_hal_flash.o(.bss)
    __heap_base                              0x20000210   Data           0  startup_stm32l051xx.o(HEAP)
    __heap_limit                             0x20001610   Data           0  startup_stm32l051xx.o(HEAP)
    __initial_sp                             0x20001a10   Data           0  startup_stm32l051xx.o(STACK)



==============================================================================

Memory Map of the image

  Image Entry point : 0x080000c1

  Load Region LR_IROM1 (Base: 0x08000000, Size: 0x00003d78, Max: 0x00010000, ABSOLUTE, COMPRESSED[0x00003c4c])

    Execution Region ER_IROM1 (Exec base: 0x08000000, Load base: 0x08000000, Size: 0x00003bf4, Max: 0x00010000, ABSOLUTE)

    Exec Addr    Load Addr    Size         Type   Attr      Idx    E Section Name        Object

    0x08000000   0x08000000   0x000000c0   Data   RO            3    RESET               startup_stm32l051xx.o
    0x080000c0   0x080000c0   0x00000000   Code   RO         2933  * .ARM.Collect$$$$00000000  mc_p.l(entry.o)
    0x080000c0   0x080000c0   0x00000004   Code   RO         3251    .ARM.Collect$$$$00000001  mc_p.l(entry2.o)
    0x080000c4   0x080000c4   0x00000004   Code   RO         3254    .ARM.Collect$$$$00000004  mc_p.l(entry5.o)
    0x080000c8   0x080000c8   0x00000000   Code   RO         3256    .ARM.Collect$$$$00000008  mc_p.l(entry7b.o)
    0x080000c8   0x080000c8   0x00000000   Code   RO         3258    .ARM.Collect$$$$0000000A  mc_p.l(entry8b.o)
    0x080000c8   0x080000c8   0x00000008   Code   RO         3259    .ARM.Collect$$$$0000000B  mc_p.l(entry9a.o)
    0x080000d0   0x080000d0   0x00000004   Code   RO         3266    .ARM.Collect$$$$0000000E  mc_p.l(entry12b.o)
    0x080000d4   0x080000d4   0x00000000   Code   RO         3261    .ARM.Collect$$$$0000000F  mc_p.l(entry10a.o)
    0x080000d4   0x080000d4   0x00000000   Code   RO         3263    .ARM.Collect$$$$00000011  mc_p.l(entry11a.o)
    0x080000d4   0x080000d4   0x00000004   Code   RO         3252    .ARM.Collect$$$$00002712  mc_p.l(entry2.o)
    0x080000d8   0x080000d8   0x0000001c   Code   RO            4    .text               startup_stm32l051xx.o
    0x080000f4   0x080000f4   0x0000002c   Code   RO         2936    .text               mc_p.l(uidiv.o)
    0x08000120   0x08000120   0x00000060   Code   RO         2940    .text               mc_p.l(uldiv.o)
    0x08000180   0x08000180   0x00000024   Code   RO         2942    .text               mc_p.l(memcpya.o)
    0x080001a4   0x080001a4   0x00000024   Code   RO         2944    .text               mc_p.l(memseta.o)
    0x080001c8   0x080001c8   0x0000001a   Code   RO         2946    .text               mc_p.l(memcmp.o)
    0x080001e2   0x080001e2   0x00000020   Code   RO         3268    .text               mc_p.l(llshl.o)
    0x08000202   0x08000202   0x00000022   Code   RO         3270    .text               mc_p.l(llushr.o)
    0x08000224   0x08000224   0x00000024   Code   RO         3291    .text               mc_p.l(init.o)
    0x08000248   0x08000248   0x00000056   Code   RO         3301    .text               mc_p.l(__dczerorl2.o)
    0x0800029e   0x0800029e   0x00000062   Code   RO          396    i.CalculateCRC      rc522.o
    0x08000300   0x08000300   0x00000016   Code   RO          397    i.ClearBitMask      rc522.o
    0x08000316   0x08000316   0x00000002   PAD
    0x08000318   0x08000318   0x0000002c   Code   RO          706    i.DEV_Module_Exit   dev_config.o
    0x08000344   0x08000344   0x0000002c   Code   RO          707    i.DEV_Module_Init   dev_config.o
    0x08000370   0x08000370   0x00000018   Code   RO          708    i.DEV_SPI_WriteByte  dev_config.o
    0x08000388   0x08000388   0x00000020   Code   RO          320    i.EEPROM_READ       eeprom.o
    0x080003a8   0x080003a8   0x00000070   Code   RO          321    i.EEPROM_Read_W_CHECK  eeprom.o
    0x08000418   0x08000418   0x00000034   Code   RO          322    i.EEPROM_WRITE      eeprom.o
    0x0800044c   0x0800044c   0x0000004e   Code   RO          323    i.EEPROM_Write_W_CHECK  eeprom.o
    0x0800049a   0x0800049a   0x0000003c   Code   RO          587    i.EPD_1IN54_V2_Display  epd_1in54_v2.o
    0x080004d6   0x080004d6   0x00000002   PAD
    0x080004d8   0x080004d8   0x00000088   Code   RO          590    i.EPD_1IN54_V2_Init  epd_1in54_v2.o
    0x08000560   0x08000560   0x00000064   Code   RO          592    i.EPD_1IN54_V2_ReadBusy  epd_1in54_v2.o
    0x080005c4   0x080005c4   0x0000003c   Code   RO          593    i.EPD_1IN54_V2_Reset  epd_1in54_v2.o
    0x08000600   0x08000600   0x00000034   Code   RO          594    i.EPD_1IN54_V2_SendCommand  epd_1in54_v2.o
    0x08000634   0x08000634   0x00000034   Code   RO          595    i.EPD_1IN54_V2_SendData  epd_1in54_v2.o
    0x08000668   0x08000668   0x00000026   Code   RO          596    i.EPD_1IN54_V2_SetCursor  epd_1in54_v2.o
    0x0800068e   0x0800068e   0x0000005e   Code   RO          597    i.EPD_1IN54_V2_SetLut  epd_1in54_v2.o
    0x080006ec   0x080006ec   0x00000040   Code   RO          598    i.EPD_1IN54_V2_SetWindows  epd_1in54_v2.o
    0x0800072c   0x0800072c   0x00000016   Code   RO          599    i.EPD_1IN54_V2_Sleep  epd_1in54_v2.o
    0x08000742   0x08000742   0x0000001a   Code   RO          600    i.EPD_1IN54_V2_TurnOnDisplay  epd_1in54_v2.o
    0x0800075c   0x0800075c   0x00000004   Code   RO           12    i.Error_Handler     main.o
    0x08000760   0x08000760   0x00000090   Code   RO         2157    i.FLASH_SetErrorCode  stm32l0xx_hal_flash.o
    0x080007f0   0x080007f0   0x00000070   Code   RO         2158    i.FLASH_WaitForLastOperation  stm32l0xx_hal_flash.o
    0x08000860   0x08000860   0x00000024   Code   RO         1238    i.HAL_Delay         stm32l0xx_hal.o
    0x08000884   0x08000884   0x00000014   Code   RO         2264    i.HAL_FLASHEx_DATAEEPROM_Lock  stm32l0xx_hal_flash_ex.o
    0x08000898   0x08000898   0x00000058   Code   RO         2265    i.HAL_FLASHEx_DATAEEPROM_Program  stm32l0xx_hal_flash_ex.o
    0x080008f0   0x080008f0   0x00000034   Code   RO         2266    i.HAL_FLASHEx_DATAEEPROM_Unlock  stm32l0xx_hal_flash_ex.o
    0x08000924   0x08000924   0x000001b0   Code   RO         2369    i.HAL_GPIO_Init     stm32l0xx_hal_gpio.o
    0x08000ad4   0x08000ad4   0x0000000a   Code   RO         2371    i.HAL_GPIO_ReadPin  stm32l0xx_hal_gpio.o
    0x08000ade   0x08000ade   0x0000000c   Code   RO         2373    i.HAL_GPIO_WritePin  stm32l0xx_hal_gpio.o
    0x08000aea   0x08000aea   0x00000002   PAD
    0x08000aec   0x08000aec   0x0000000c   Code   RO         1242    i.HAL_GetTick       stm32l0xx_hal.o
    0x08000af8   0x08000af8   0x00000010   Code   RO         1248    i.HAL_IncTick       stm32l0xx_hal.o
    0x08000b08   0x08000b08   0x00000028   Code   RO         1249    i.HAL_Init          stm32l0xx_hal.o
    0x08000b30   0x08000b30   0x00000044   Code   RO         1250    i.HAL_InitTick      stm32l0xx_hal.o
    0x08000b74   0x08000b74   0x00000048   Code   RO          299    i.HAL_MspInit       stm32l0xx_hal_msp.o
    0x08000bbc   0x08000bbc   0x00000018   Code   RO         2698    i.HAL_NVIC_EnableIRQ  stm32l0xx_hal_cortex.o
    0x08000bd4   0x08000bd4   0x00000008   Code   RO         2702    i.HAL_NVIC_SetPriority  stm32l0xx_hal_cortex.o
    0x08000bdc   0x08000bdc   0x00000068   Code   RO         2521    i.HAL_PWR_ConfigPVD  stm32l0xx_hal_pwr.o
    0x08000c44   0x08000c44   0x00000010   Code   RO         2529    i.HAL_PWR_EnablePVD  stm32l0xx_hal_pwr.o
    0x08000c54   0x08000c54   0x00000002   Code   RO         2536    i.HAL_PWR_PVDCallback  stm32l0xx_hal_pwr.o
    0x08000c56   0x08000c56   0x00000002   PAD
    0x08000c58   0x08000c58   0x0000001c   Code   RO         2537    i.HAL_PWR_PVD_IRQHandler  stm32l0xx_hal_pwr.o
    0x08000c74   0x08000c74   0x0000019c   Code   RO         1954    i.HAL_RCC_ClockConfig  stm32l0xx_hal_rcc.o
    0x08000e10   0x08000e10   0x00000078   Code   RO         1962    i.HAL_RCC_GetSysClockFreq  stm32l0xx_hal_rcc.o
    0x08000e88   0x08000e88   0x00000426   Code   RO         1965    i.HAL_RCC_OscConfig  stm32l0xx_hal_rcc.o
    0x080012ae   0x080012ae   0x000000b6   Code   RO          922    i.HAL_SPI_Init      stm32l0xx_hal_spi.o
    0x08001364   0x08001364   0x00000058   Code   RO          209    i.HAL_SPI_MspInit   spi.o
    0x080013bc   0x080013bc   0x00000160   Code   RO          930    i.HAL_SPI_Transmit  stm32l0xx_hal_spi.o
    0x0800151c   0x0800151c   0x00000030   Code   RO         2706    i.HAL_SYSTICK_Config  stm32l0xx_hal_cortex.o
    0x0800154c   0x0800154c   0x00000002   Code   RO          246    i.HardFault_Handler  stm32l0xx_it.o
    0x0800154e   0x0800154e   0x00000002   PAD
    0x08001550   0x08001550   0x00000088   Code   RO          369    i.KeyScan           key.o
    0x080015d8   0x080015d8   0x0000008c   Code   RO          188    i.MX_GPIO_Init      gpio.o
    0x08001664   0x08001664   0x00000040   Code   RO          210    i.MX_SPI1_Init      spi.o
    0x080016a4   0x080016a4   0x00000002   Code   RO          247    i.NMI_Handler       stm32l0xx_it.o
    0x080016a6   0x080016a6   0x00000008   Code   RO          248    i.PVD_IRQHandler    stm32l0xx_it.o
    0x080016ae   0x080016ae   0x00000002   PAD
    0x080016b0   0x080016b0   0x0000009c   Code   RO          752    i.Paint_Clear       gui_paint.o
    0x0800174c   0x0800174c   0x00000030   Code   RO          754    i.Paint_DrawBitMap  gui_paint.o
    0x0800177c   0x0800177c   0x00000068   Code   RO          756    i.Paint_DrawBitMap_Paste  gui_paint.o
    0x080017e4   0x080017e4   0x00000040   Code   RO          767    i.Paint_NewImage    gui_paint.o
    0x08001824   0x08001824   0x0000000c   Code   RO          768    i.Paint_SelectImage  gui_paint.o
    0x08001830   0x08001830   0x0000011c   Code   RO          770    i.Paint_SetPixel    gui_paint.o
    0x0800194c   0x0800194c   0x00000068   Code   RO          400    i.PcdAnticoll       rc522.o
    0x080019b4   0x080019b4   0x00000050   Code   RO          401    i.PcdAuthState      rc522.o
    0x08001a04   0x08001a04   0x00000118   Code   RO          402    i.PcdComMF522       rc522.o
    0x08001b1c   0x08001b1c   0x0000004a   Code   RO          404    i.PcdRead           rc522.o
    0x08001b66   0x08001b66   0x00000052   Code   RO          405    i.PcdRequest        rc522.o
    0x08001bb8   0x08001bb8   0x00000062   Code   RO          406    i.PcdSelect         rc522.o
    0x08001c1a   0x08001c1a   0x00000082   Code   RO          407    i.PcdWrite          rc522.o
    0x08001c9c   0x08001c9c   0x00000002   Code   RO          249    i.PendSV_Handler    stm32l0xx_it.o
    0x08001c9e   0x08001c9e   0x00000094   Code   RO          408    i.RC522_Init        rc522.o
    0x08001d32   0x08001d32   0x00000002   PAD
    0x08001d34   0x08001d34   0x00000034   Code   RO          409    i.RC522_Port_Init   rc522.o
    0x08001d68   0x08001d68   0x00000012   Code   RO          410    i.RC522_PowerOff    rc522.o
    0x08001d7a   0x08001d7a   0x00000002   PAD
    0x08001d7c   0x08001d7c   0x00000014   Code   RO          411    i.RC522_ReadReg     rc522.o
    0x08001d90   0x08001d90   0x00000014   Code   RO          412    i.RC522_WriteReg    rc522.o
    0x08001da4   0x08001da4   0x00000048   Code   RO          413    i.RST_Pin_Init      rc522.o
    0x08001dec   0x08001dec   0x00000014   Code   RO          533    i.SPI_CS_SET        soft_spi.o
    0x08001e00   0x08001e00   0x00000060   Code   RO          960    i.SPI_EndRxTxTransaction  stm32l0xx_hal_spi.o
    0x08001e60   0x08001e60   0x0000007c   Code   RO          534    i.SPI_GpioInit      soft_spi.o
    0x08001edc   0x08001edc   0x00000012   Code   RO          535    i.SPI_MISO_Read     soft_spi.o
    0x08001eee   0x08001eee   0x00000014   Code   RO          536    i.SPI_MOSI_SET      soft_spi.o
    0x08001f02   0x08001f02   0x0000008c   Code   RO          537    i.SPI_ReadByte      soft_spi.o
    0x08001f8e   0x08001f8e   0x00000014   Code   RO          538    i.SPI_SCLK_SET      soft_spi.o
    0x08001fa2   0x08001fa2   0x00000002   PAD
    0x08001fa4   0x08001fa4   0x000000b8   Code   RO          965    i.SPI_WaitFlagStateUntilTimeout  stm32l0xx_hal_spi.o
    0x0800205c   0x0800205c   0x00000084   Code   RO          539    i.SPI_WriteByte     soft_spi.o
    0x080020e0   0x080020e0   0x00000002   Code   RO          250    i.SVC_Handler       stm32l0xx_it.o
    0x080020e2   0x080020e2   0x00000016   Code   RO          414    i.SetBitMask        rc522.o
    0x080020f8   0x080020f8   0x00000008   Code   RO          251    i.SysTick_Handler   stm32l0xx_it.o
    0x08002100   0x08002100   0x00000068   Code   RO           13    i.SystemClock_Config  main.o
    0x08002168   0x08002168   0x00000002   Code   RO         2902    i.SystemInit        system_stm32l0xx.o
    0x0800216a   0x0800216a   0x00000002   PAD
    0x0800216c   0x0800216c   0x00000020   Code   RO         3039    i.__0printf$3       mc_p.l(printf3.o)
    0x0800218c   0x0800218c   0x00000030   Code   RO         2039    i.__ARM_common_ll_muluu  stm32l0xx_hal_rcc.o
    0x080021bc   0x080021bc   0x00000044   Code   RO         2708    i.__NVIC_SetPriority  stm32l0xx_hal_cortex.o
    0x08002200   0x08002200   0x0000000e   Code   RO         3295    i.__scatterload_copy  mc_p.l(handlers.o)
    0x0800220e   0x0800220e   0x00000002   Code   RO         3296    i.__scatterload_null  mc_p.l(handlers.o)
    0x08002210   0x08002210   0x0000000e   Code   RO         3297    i.__scatterload_zeroinit  mc_p.l(handlers.o)
    0x0800221e   0x0800221e   0x00000002   PAD
    0x08002220   0x08002220   0x000001cc   Code   RO         3046    i._printf_core      mc_p.l(printf3.o)
    0x080023ec   0x080023ec   0x00000002   Code   RO           14    i.fputc             main.o
    0x080023ee   0x080023ee   0x00000002   PAD
    0x080023f0   0x080023f0   0x00000054   Code   RO         3211    i.free              mc_p.l(malloc.o)
    0x08002444   0x08002444   0x00000038   Code   RO          370    i.key_port_init     key.o
    0x0800247c   0x0800247c   0x000002e8   Code   RO           15    i.main              main.o
    0x08002764   0x08002764   0x0000006c   Code   RO         3212    i.malloc            mc_p.l(malloc.o)
    0x080027d0   0x080027d0   0x00001388   Data   RO          737    .constdata          imagedata.o
    0x08003b58   0x08003b58   0x00000060   Data   RO          738    .constdata          imagedata.o
    0x08003bb8   0x08003bb8   0x00000019   Data   RO         2903    .constdata          system_stm32l0xx.o
    0x08003bd1   0x08003bd1   0x00000003   PAD
    0x08003bd4   0x08003bd4   0x00000020   Data   RO         3293    Region$$Table       anon$$obj.o


    Execution Region RW_IRAM1 (Exec base: 0x20000000, Load base: 0x08003bf4, Size: 0x00001a10, Max: 0x00002000, ABSOLUTE, COMPRESSED[0x00000058])

    Exec Addr    Load Addr    Size         Type   Attr      Idx    E Section Name        Object

    0x20000000   COMPRESSED   0x0000000f   Data   RW           16    .data               main.o
    0x2000000f   COMPRESSED   0x00000001   Data   RW          371    .data               key.o
    0x20000010   COMPRESSED   0x00000018   Data   RW          416    .data               rc522.o
    0x20000028   COMPRESSED   0x0000013e   Data   RW          604    .data               epd_1in54_v2.o
    0x20000166   COMPRESSED   0x00000002   PAD
    0x20000168   COMPRESSED   0x0000000c   Data   RW         1260    .data               stm32l0xx_hal.o
    0x20000174   COMPRESSED   0x00000004   Data   RW         2905    .data               system_stm32l0xx.o
    0x20000178   COMPRESSED   0x00000004   Data   RW         3267    .data               mc_p.l(stdout.o)
    0x2000017c   COMPRESSED   0x00000004   Data   RW         3274    .data               mc_p.l(mvars.o)
    0x20000180   COMPRESSED   0x00000004   Data   RW         3275    .data               mc_p.l(mvars.o)
    0x20000184        -       0x00000058   Zero   RW          211    .bss                spi.o
    0x200001dc        -       0x00000018   Zero   RW          773    .bss                gui_paint.o
    0x200001f4        -       0x00000018   Zero   RW         2170    .bss                stm32l0xx_hal_flash.o
    0x2000020c   COMPRESSED   0x00000004   PAD
    0x20000210        -       0x00001400   Zero   RW            2    HEAP                startup_stm32l051xx.o
    0x20001610        -       0x00000400   Zero   RW            1    STACK               startup_stm32l051xx.o


==============================================================================

Image component sizes


      Code (inc. data)   RO Data    RW Data    ZI Data      Debug   Object Name

       112         16          0          0          0       1560   dev_config.o
       274         12          0          0          0       3566   eeprom.o
       704         86          0        318          0       7419   epd_1in54_v2.o
       140         12          0          0          0        979   gpio.o
       668         66          0          0         24       8812   gui_paint.o
         0          0       5096          0          0        679   imagedata.o
       192          8          0          1          0       1798   key.o
       854         66          0         15          0     266216   main.o
      1320         22          0         24          0      12742   rc522.o
       474          0          0          0          0       4695   soft_spi.o
       152         18          0          0         88       1697   spi.o
        28          8        192          0       6144        660   startup_stm32l051xx.o
       172         28          0         12          0       8837   stm32l0xx_hal.o
       148         24          0          0          0      12249   stm32l0xx_hal_cortex.o
       256         16          0          0         24       6754   stm32l0xx_hal_flash.o
       160         28          0          0          0       2331   stm32l0xx_hal_flash_ex.o
       454         30          0          0          0       2843   stm32l0xx_hal_gpio.o
        72         10          0          0          0        542   stm32l0xx_hal_msp.o
       150         20          0          0          0       2771   stm32l0xx_hal_pwr.o
      1642         66          0          0          0       4674   stm32l0xx_hal_rcc.o
       814         12          0          0          0       4914   stm32l0xx_hal_spi.o
        24          0          0          0          0       2760   stm32l0xx_it.o
         2          0         25          4          0       1255   system_stm32l0xx.o

    ----------------------------------------------------------------------
      8834        548       5348        376       6284     360753   Object Totals
         0          0         32          0          0          0   (incl. Generated)
        22          0          3          2          4          0   (incl. Padding)

    ----------------------------------------------------------------------

      Code (inc. data)   RO Data    RW Data    ZI Data      Debug   Library Member Name

        86          0          0          0          0          0   __dczerorl2.o
         0          0          0          0          0          0   entry.o
         0          0          0          0          0          0   entry10a.o
         0          0          0          0          0          0   entry11a.o
         4          0          0          0          0          0   entry12b.o
         8          4          0          0          0          0   entry2.o
         4          0          0          0          0          0   entry5.o
         0          0          0          0          0          0   entry7b.o
         0          0          0          0          0          0   entry8b.o
         8          4          0          0          0          0   entry9a.o
        30          0          0          0          0          0   handlers.o
        36          8          0          0          0         68   init.o
        32          0          0          0          0         68   llshl.o
        34          0          0          0          0         68   llushr.o
       192         20          0          0          0        144   malloc.o
        26          0          0          0          0         72   memcmp.o
        36          0          0          0          0         60   memcpya.o
        36          0          0          0          0        100   memseta.o
         0          0          0          8          0          0   mvars.o
       492         12          0          0          0        168   printf3.o
         0          0          0          4          0          0   stdout.o
        44          0          0          0          0         72   uidiv.o
        96          0          0          0          0         84   uldiv.o

    ----------------------------------------------------------------------
      1166         48          0         12          0        904   Library Totals
         2          0          0          0          0          0   (incl. Padding)

    ----------------------------------------------------------------------

      Code (inc. data)   RO Data    RW Data    ZI Data      Debug   Library Name

      1164         48          0         12          0        904   mc_p.l

    ----------------------------------------------------------------------
      1166         48          0         12          0        904   Library Totals

    ----------------------------------------------------------------------

==============================================================================


      Code (inc. data)   RO Data    RW Data    ZI Data      Debug   

     10000        596       5348        388       6284     357525   Grand Totals
     10000        596       5348         88       6284     357525   ELF Image Totals (compressed)
     10000        596       5348         88          0          0   ROM Totals

==============================================================================

    Total RO  Size (Code + RO Data)                15348 (  14.99kB)
    Total RW  Size (RW Data + ZI Data)              6672 (   6.52kB)
    Total ROM Size (Code + RO Data + RW Data)      15436 (  15.07kB)

==============================================================================

